:020000040800F2
:1000000000500020D9010008750100087D0100089A
:10001000850100088D01000895010008000000001E
:100020000000000000000000000000009D0100082A
:10003000A901000800000000B5010008C101000886
:100040002102000821020008210200082102000804
:1000500021020008210200082102000821020008F4
:1000600021020008210200082102000821020008E4
:1000700021020008210200082102000821020008D4
:1000800021020008210200082102000821020008C4
:1000900021020008210200082102000821020008B4
:1000A00021020008210200082102000821020008A4
:1000B0002102000821020008210200082102000894
:1000C0002102000821020008210200082102000884
:1000D0002102000821020008210200082102000874
:1000E000210200082102000821020008000000008F
:1000F0000000000000000000000000000000000000
:0C01000000000000000000005FF808F1A3
:10010C0010B5054C237833B9044B13B10448AFF345
:10011C0000800123237010BD0400002000000000AB
:10012C009002000808B5034B1BB103490348AFF319
:10013C00008008BD000000000800002090020008AC
:10014C0090B486B000AF07F120037B61054B3C1DDA
:10015C000FCB84E80F00002318461837BD4690BC1F
:10016C00704700BFA802000880B400AF00BFFDE7D5
:10017C0080B400AF00BFFDE780B400AF00BFFDE767
:10018C0080B400AF00BFFDE780B400AF00BFFDE757
:10019C0080B400AF00BFBD4680BC704780B400AFD8
:1001AC0000BFBD4680BC704780B400AF00BFBD46E9
:1001BC0080BC704780B500AF00F02EF800BF80BD4A
:1001CC0080B400AF00BFBD4680BC7047FFF7F8FF9E
:1001DC000B480C490C4A002302E0D458C450043399
:1001EC00C4188C42F9D3094A094C002301E013606E
:1001FC000432A242FBD300F021F8FFF7A1FF7047B5
:10020C000000002004000020C002000804000020B0
:10021C0024000020FEE7000080B400AF054B1B78E3
:10022C001A46054B1B681344034A136000BFBD46B6
:10023C0080BC7047000000202000002070B5002614
:10024C000C4D0D4C641BA410A64209D100F01AF8F9
:10025C0000260A4D0A4C641BA410A64205D170BDA1
:10026C0055F8043B98470136EEE755F8043B9847A0
:10027C000136F2E7B8020008B8020008B80200081C
:10028C00BC020008F8B500BFF8BC08BC9E4670471D
:0C029C00F8B500BFF8BC08BC9E467047D7
:1002A8000200000004000000080000001000000028
:0402B8003101000808
:0402BC000D01000828
:0402C0000100000039
:04000005080001D915
:00000001FF
