:020000040800F2
:1000000000500020E1020008C9020008CB020008ED
:10001000CD020008CF020008D10200080000000055
:10002000000000000000000000000000D3020008F3
:10003000D502000800000000D7020008D90200081D
:1000400029030008290300082903000829030008E0
:1000500029030008290300082903000829030008D0
:1000600029030008290300082903000829030008C0
:1000700029030008290300082903000829030008B0
:1000800029030008290300082903000829030008A0
:100090002903000829030008290300082903000890
:1000A0002903000829030008290300082903000880
:1000B0002903000829030008290300082903000870
:1000C0002903000829030008290300082903000860
:1000D0002903000829030008290300082903000850
:1000E0002903000829030008290300080000000074
:1000F0000000000000000000000000000000000000
:0C01000000000000000000005FF808F1A3
:10010C0010B5054C237833B9044B13B10448AFF345
:10011C0000800123237010BD1C0000200000000093
:10012C00680B000808B5034B1BB103490348AFF338
:10013C00008008BD0000000020000020680B0008B3
:10014C0000B591B02422002107A800F0DBFC14229A
:10015C00002101A800F0D6FC0223012106931023F4
:10016C0006A8CDE90A1300F06FFA014608B172B681
:10017C00FEE70F23CDE90300CDE90130059001A87E
:10018C0000F024FC08B172B6FEE711B05DF804FB78
:10019C00BFB500F0E9F8FFF7D3FF1022002102A849
:1001AC0000F0B0FC364B1E219A69364842F004022E
:1001BC009A619B69002203F0040301930124019BC3
:1001CC0000F03CFA1E230025CDE9023402232D4811
:1001DC0002A9CDE9045300F053F96023294802A980
:1001EC000494CDE9023500F04BF9264C264F202122
:1001FC00204600F01DFA01281FD14FF4FA7000F0D0
:10020C00D7F82021204600F013FA0128EFD1002264
:10021C001E21204600F012FA00251B4E56F8041B36
:10022C000122204689B200F009FA01354FF47A70A8
:10023C0000F0BEF8042DF1D1D9E74021204600F0A2
:10024C00F7F90128D3D14FF4FA7000F0B1F840213E
:10025C00204600F0EDF90128C9D100221E212046CC
:10026C0000F0ECF9032537F825100122204600F0A8
:10027C00E5F94FF47A7000F09BF8013DF3D2B6E744
:10028C000010024000080140000000200A4B82B020
:10029C009A6942F001029A619A6902F00102009295
:1002AC00009ADA6942F08052DA61DB6903F080531C
:1002BC000193019B02B0704700100240FEE7FEE77D
:1002CC00FEE7FEE7FEE770477047704700F05EB848
:1002DC0070470000FFF7FCFF0B480C490C4A002349
:1002EC0002E0D458C4500433C4188C42F9D3094AE0
:1002FC00094C002301E013600432A242FBD300F04E
:10030C0009FCFFF745FF7047000000201C0000208F
:10031C00AC0B00081C0000203C000020FEE7000095
:10032C0038B50E4B05461A784FF47A73B3FBF2F3DB
:10033C000B4A1068B0FBF3F000F08EF8044658B985
:10034C000F2D09D8024629464FF0FF3000F054F823
:10035C002046044B1D6038BD0120FCE71400002032
:10036C001000002018000020074A08B5136803206D
:10037C0043F01003136000F02DF80F20FFF7D0FFAF
:10038C00FFF784FF002008BD00200240034A044B05
:10039C0011681B780B441360704700BF38000020B5
:1003AC0014000020014B1868704700BF3800002073
:1003BC0038B50446FFF7F6FF0546631C1EBF044B19
:1003CC001B78E418FFF7EEFF431BA342FAD338BDAA
:1003DC001400002007490302CA6803F4E06322F406
:1003EC00E0621204120C134343F0BF6343F4003376
:1003FC00CB60704700ED00E0154B30B5DC68C4F302
:10040C000224C4F10703251D042B28BF0423062D49
:10041C004FF0FF3594BF0024033C05FA03F321EAA7
:10042C000303A54022EA0502A340002843EA020385
:10043C00ACBF00F16040074A4FEA0313DBB2ABBF1D
:10044C0000F5614000F00F0080F80033135430BD0C
:10045C0000ED00E014ED00E00138B0F1807F0BD22C
:10046C004FF0E023F021054A586182F82310002058
:10047C00072298611A6170470120704700ED00E077
:10048C002DE9F74F00242646DFF888C1624BDFF8D0
:10049C008CE1DFF88C810A6832FA06F502D103B0E0
:1004AC00BDE8F08F0127B74002EA070537EA0202E0
:1004BC007AD14A68032A07D8013A022A00F28380CB
:1004CC00DFE802F092979D00122A00F095806DD81B
:1004DC00112A00F08B80FF2D98BF81464FF00F0B37
:1004EC0088BF00F104094FEA8602D9F8007088BF72
:1004FC00203A0BFA02FA27EA0A0704FA02F2174327
:10050C00C9F80070D1F8049019F0805F4CD0DCF879
:10051C00182026F0030742F00102CCF81820DCF872
:10052C00182007F1804702F00102019207F580378D
:10053C0006F0030A019A4FEA8A0ABA680BFA0AFB18
:10054C0022EA0B0B374A90425DD002F58062904252
:10055C005BD002F58062904259D002F580629042E5
:10056C0014BF0422032202FA0AF242EA0B02BA6016
:10057C009A6819F4801F14BF2A43AA439A60DA6858
:10058C0019F4001F14BF2A43AA43DA605A6819F4FD
:10059C00003F14BF2A43AA435A601A6819F4803FDB
:1005AC0014BF2A43AA431A60013674E7DFF8789027
:1005BC004A4508D010D8A9F580194A4503D0724590
:1005CC0001D0424587D18A68DAB1012A4FF008047C
:1005DC000CBF076147617EE7DFF850904A45F2D0C7
:1005EC0009F580394A45EDE7CC6874E7CC680434EA
:1005FC0071E7CC6808346EE7CC680C346BE70024E8
:10060C0069E7042467E70022ADE70122ABE7022289
:10061C00A9E700BF001002400004014000002110B7
:10062C0000001110000801400000221000003110E1
:10063C008368194214BF0120002070470AB1016180
:10064C0070470904FBE700002DE9F341054638B378
:10065C000368DB0710D42B689F075ED42B6819073F
:10066C0000F195802B685A0700F1C180EB69002BD3
:10067C0040F02C81002029E0904C636803F00C03BF
:10068C00042B07D0636803F00C03082B0AD16368B2
:10069C00DE0307D523689C03DDD56B68002BDAD10C
:1006AC00012013E06B68B3F5803F12D1236843F44B
:1006BC0080332360FFF776FE064623689803CAD47E
:1006CC00FFF770FE801B6428F7D9032002B0BDE849
:1006DC00F0819BB9236823F480332360236823F4CF
:1006EC0080232360FFF75EFE064623689903B2D58C
:1006FC00FFF758FE801B6428F7D9E6E7B3F5A02F67
:10070C00236803D143F480232360CFE723F48033A1
:10071C002360236823F48023CBE7684C636813F0D1
:10072C000C0F07D0636803F00C03082B10D163681F
:10073C00DA030DD423689B0702D52B69012BAFD1AB
:10074C0023686A6923F0F80343EAC203236085E750
:10075C002A695B4B6AB101221A60FFF723FE064639
:10076C0023689F07ECD4FFF71DFE801B0228F7D9E6
:10077C00ABE71A60FFF716FE0646236898077FF56D
:10078C006DAFFFF70FFE801B0228F6D99DE7AA6913
:10079C004A4E4B4BE2B10122C3F88024FFF702FE14
:1007AC000446736A9B070DD54FF4FA52454B1B68F0
:1007BC00B3FBF2F3019300BF019B5A1E0192002B75
:1007CC00F9D14FE7FFF7EEFD001B0228E9D97CE7D2
:1007DC00C3F88024FFF7E6FD0446736A9F077FF594
:1007EC0041AFFFF7DFFD001B0228F6D96DE7334C54
:1007FC00E369D80024D40127E36943F08053E36113
:10080C00E36903F080530093009B2F4E3368D905A6
:10081C0018D5EB68012B26D1236A43F00103236220
:10082C00FFF7C0FD41F288380646236A9B073FD587
:10083C00002F3FF41BAFE36923F08053E36115E70E
:10084C000027E2E7336843F480733360FFF7AAFDB7
:10085C0080463368DA05DCD4FFF7A4FDA0EB080072
:10086C006428F6D931E7ABB9236A41F2883823F012
:10087C0001032362236A23F004032362FFF792FD32
:10088C000646236A9807D3D5FFF78CFD801B40459D
:10089C00F7D91AE7052B236A03D143F0040323622B
:1008AC00BAE723F001032362236A23F00403B6E7BB
:1008BC00FFF778FD801B4045B7D906E700100240D2
:1008CC000000424210000020007000402A4C626878
:1008DC0002F00C02082A3ED00022022B274B1A668B
:1008EC002CD1FFF75FFD06462368990120D42B6AB3
:1008FC00B3F5803F05D16268A96822F400320A433F
:10090C006260696A62680B4322F474121343012219
:10091C0063601A4B1A66FFF745FD054623689A017A
:10092C003FF5A8AEFFF73EFD401B0228F6D9CCE6FA
:10093C00FFF738FD801B0228D6D9C6E6FFF732FD3B
:10094C00054623689B017FF595AEFFF72BFD401BF9
:10095C000228F6D9B9E6012B3FF4A2AE60682B6AE7
:10096C0000F480329A427FF49BAE6B6A00F47010F4
:10097C00C01A18BF0120A9E6001002400000424234
:10098C000D4A536803F00C01082912D10B48C3F32C
:10099C008341DB03405C09D55368094AC3F34043E8
:1009AC005043084AD35CB0FBF3F07047064B5843F6
:1009BC0070470348704700BF00100240920B0008BC
:1009CC0000127A00900B000800093D002DE9F0415F
:1009DC000D46044610B90120BDE8F081444A136865
:1009EC0003F007038B4228D321688E0730D4CA0743
:1009FC0043D43F4A136803F00703AB4265D822681F
:100A0C003C4D12F0040F6CD1130706D56B682269AC
:100A1C0023F4605343EAC2036B60FFF7B1FF6B68CA
:100A2C00354AC3F30313D35CD840344B1860344BB2
:100A3C001868FFF775FC0020CEE7136823F0070356
:100A4C000B431360136803F007038B42C3D1CBE74E
:100A5C00284B11F0040F1EBF5A6842F4E0625A6032
:100A6C00080742BF5A6842F460525A605A68A0683C
:100A7C0022F0F00202435A60B9E762681D4E012A67
:100A8C0033681AD113F4003FA5D0736841F288384B
:100A9C0023F0030313437360FFF784FC074673686A
:100AAC00626803F00C03B3EB820FA2D0FFF77AFC61
:100ABC00C01B4045F3D903208EE7022A02D113F064
:100ACC00007FE1E713F0020FDEE7136823F0070362
:100ADC002B431360136803F00703AB427FF47BAF27
:100AEC008DE76B68E16823F4E0630B436B608BE785
:100AFC000020024000100240800B00081000002073
:100B0C001800002003460244934200D1704703F8BA
:100B1C00011BF9E770B500260C4D0D4C641BA4109D
:100B2C00A64209D100F01AF800260A4D0A4C641BA3
:100B3C00A410A64205D170BD55F8043B9847013668
:100B4C00EEE755F8043B98470136F2E7A40B000892
:100B5C00A40B0008A40B0008A80B0008F8B500BFF4
:100B6C00F8BC08BC9E467047F8B500BFF8BC08BC82
:040B7C009E467047DA
:100B8000000000000000000001020304060708093D
:100B9000010202030405060708090A0B0C0D0E0FDB
:040BA0001010000031
:040BA4003101000813
:040BA8000D01000833
:100BAC00020000000400000008000000100000001B
:0C0BBC0000127A00010000001000000090
:04000005080002E10C
:00000001FF
